{
  "_format": "hh-sol-artifact-1",
  "contractName": "TestToken",
  "sourceName": "contracts/TestToken.sol",
  "abi": [
    {
      "inputs": [
        {
          "internalType": "address",
          "name": "initialOwner",
          "type": "address"
        }
      ],
      "stateMutability": "nonpayable",
      "type": "constructor"
    },
    {
      "inputs": [
        {
          "internalType": "address",
          "name": "spender",
          "type": "address"
        },
        {
          "internalType": "uint256",
          "name": "allowance",
          "type": "uint256"
        },
        {
          "internalType": "uint256",
          "name": "needed",
          "type": "uint256"
        }
      ],
      "name": "ERC20InsufficientAllowance",
      "type": "error"
    },
    {
      "inputs": [
        {
          "internalType": "address",
          "name": "sender",
          "type": "address"
        },
        {
          "internalType": "uint256",
          "name": "balance",
          "type": "uint256"
        },
        {
          "internalType": "uint256",
          "name": "needed",
          "type": "uint256"
        }
      ],
      "name": "ERC20InsufficientBalance",
      "type": "error"
    },
    {
      "inputs": [
        {
          "internalType": "address",
          "name": "approver",
          "type": "address"
        }
      ],
      "name": "ERC20InvalidApprover",
      "type": "error"
    },
    {
      "inputs": [
        {
          "internalType": "address",
          "name": "receiver",
          "type": "address"
        }
      ],
      "name": "ERC20InvalidReceiver",
      "type": "error"
    },
    {
      "inputs": [
        {
          "internalType": "address",
          "name": "sender",
          "type": "address"
        }
      ],
      "name": "ERC20InvalidSender",
      "type": "error"
    },
    {
      "inputs": [
        {
          "internalType": "address",
          "name": "spender",
          "type": "address"
        }
      ],
      "name": "ERC20InvalidSpender",
      "type": "error"
    },
    {
      "inputs": [
        {
          "internalType": "address",
          "name": "owner",
          "type": "address"
        }
      ],
      "name": "OwnableInvalidOwner",
      "type": "error"
    },
    {
      "inputs": [
        {
          "internalType": "address",
          "name": "account",
          "type": "address"
        }
      ],
      "name": "OwnableUnauthorizedAccount",
      "type": "error"
    },
    {
      "anonymous": false,
      "inputs": [
        {
          "indexed": true,
          "internalType": "address",
          "name": "owner",
          "type": "address"
        },
        {
          "indexed": true,
          "internalType": "address",
          "name": "spender",
          "type": "address"
        },
        {
          "indexed": false,
          "internalType": "uint256",
          "name": "value",
          "type": "uint256"
        }
      ],
      "name": "Approval",
      "type": "event"
    },
    {
      "anonymous": false,
      "inputs": [
        {
          "indexed": false,
          "internalType": "uint128",
          "name": "a",
          "type": "uint128"
        },
        {
          "indexed": false,
          "internalType": "uint128",
          "name": "b",
          "type": "uint128"
        }
      ],
      "name": "CalledCrazyArray",
      "type": "event"
    },
    {
      "anonymous": false,
      "inputs": [
        {
          "indexed": false,
          "internalType": "uint128",
          "name": "a",
          "type": "uint128"
        },
        {
          "indexed": false,
          "internalType": "uint128",
          "name": "b",
          "type": "uint128"
        }
      ],
      "name": "CalledFooBar",
      "type": "event"
    },
    {
      "anonymous": false,
      "inputs": [
        {
          "indexed": true,
          "internalType": "address",
          "name": "previousOwner",
          "type": "address"
        },
        {
          "indexed": true,
          "internalType": "address",
          "name": "newOwner",
          "type": "address"
        }
      ],
      "name": "OwnershipTransferred",
      "type": "event"
    },
    {
      "anonymous": false,
      "inputs": [
        {
          "indexed": true,
          "internalType": "address",
          "name": "from",
          "type": "address"
        },
        {
          "indexed": true,
          "internalType": "address",
          "name": "to",
          "type": "address"
        },
        {
          "indexed": false,
          "internalType": "uint256",
          "name": "value",
          "type": "uint256"
        }
      ],
      "name": "Transfer",
      "type": "event"
    },
    {
      "inputs": [
        {
          "internalType": "address",
          "name": "owner",
          "type": "address"
        },
        {
          "internalType": "address",
          "name": "spender",
          "type": "address"
        }
      ],
      "name": "allowance",
      "outputs": [
        {
          "internalType": "uint256",
          "name": "",
          "type": "uint256"
        }
      ],
      "stateMutability": "view",
      "type": "function"
    },
    {
      "inputs": [
        {
          "internalType": "address",
          "name": "spender",
          "type": "address"
        },
        {
          "internalType": "uint256",
          "name": "value",
          "type": "uint256"
        }
      ],
      "name": "approve",
      "outputs": [
        {
          "internalType": "bool",
          "name": "",
          "type": "bool"
        }
      ],
      "stateMutability": "nonpayable",
      "type": "function"
    },
    {
      "inputs": [
        {
          "internalType": "address",
          "name": "account",
          "type": "address"
        }
      ],
      "name": "balanceOf",
      "outputs": [
        {
          "internalType": "uint256",
          "name": "",
          "type": "uint256"
        }
      ],
      "stateMutability": "view",
      "type": "function"
    },
    {
      "inputs": [
        {
          "components": [
            {
              "internalType": "uint128",
              "name": "fooUint128",
              "type": "uint128"
            },
            {
              "internalType": "string",
              "name": "fooString",
              "type": "string"
            },
            {
              "internalType": "bool[]",
              "name": "fooBoolArray",
              "type": "bool[]"
            }
          ],
          "internalType": "struct TestToken.Foo",
          "name": "foo",
          "type": "tuple"
        },
        {
          "components": [
            {
              "components": [
                {
                  "internalType": "uint128",
                  "name": "fooUint128",
                  "type": "uint128"
                },
                {
                  "internalType": "string",
                  "name": "fooString",
                  "type": "string"
                },
                {
                  "internalType": "bool[]",
                  "name": "fooBoolArray",
                  "type": "bool[]"
                }
              ],
              "internalType": "struct TestToken.Foo[]",
              "name": "barFooArray",
              "type": "tuple[]"
            }
          ],
          "internalType": "struct TestToken.Bar",
          "name": "bar",
          "type": "tuple"
        }
      ],
      "name": "callFooBar",
      "outputs": [],
      "stateMutability": "nonpayable",
      "type": "function"
    },
    {
      "inputs": [
        {
          "internalType": "uint128[][2]",
          "name": "thing",
          "type": "uint128[][2]"
        }
      ],
      "name": "crazyArray",
      "outputs": [],
      "stateMutability": "nonpayable",
      "type": "function"
    },
    {
      "inputs": [],
      "name": "decimals",
      "outputs": [
        {
          "internalType": "uint8",
          "name": "",
          "type": "uint8"
        }
      ],
      "stateMutability": "view",
      "type": "function"
    },
    {
      "inputs": [
        {
          "internalType": "uint256",
          "name": "",
          "type": "uint256"
        }
      ],
      "name": "fixedArray",
      "outputs": [
        {
          "internalType": "uint128",
          "name": "",
          "type": "uint128"
        }
      ],
      "stateMutability": "view",
      "type": "function"
    },
    {
      "inputs": [
        {
          "internalType": "address",
          "name": "to",
          "type": "address"
        },
        {
          "internalType": "uint256",
          "name": "amount",
          "type": "uint256"
        }
      ],
      "name": "mint",
      "outputs": [],
      "stateMutability": "nonpayable",
      "type": "function"
    },
    {
      "inputs": [
        {
          "internalType": "address[]",
          "name": "to",
          "type": "address[]"
        },
        {
          "internalType": "uint256[]",
          "name": "amounts",
          "type": "uint256[]"
        }
      ],
      "name": "mintBatch",
      "outputs": [],
      "stateMutability": "payable",
      "type": "function"
    },
    {
      "inputs": [],
      "name": "name",
      "outputs": [
        {
          "internalType": "string",
          "name": "",
          "type": "string"
        }
      ],
      "stateMutability": "view",
      "type": "function"
    },
    {
      "inputs": [
        {
          "internalType": "uint256",
          "name": "",
          "type": "uint256"
        },
        {
          "internalType": "uint256",
          "name": "",
          "type": "uint256"
        }
      ],
      "name": "nestedArray",
      "outputs": [
        {
          "internalType": "uint128",
          "name": "",
          "type": "uint128"
        }
      ],
      "stateMutability": "view",
      "type": "function"
    },
    {
      "inputs": [
        {
          "internalType": "uint256",
          "name": "",
          "type": "uint256"
        },
        {
          "internalType": "uint256",
          "name": "",
          "type": "uint256"
        }
      ],
      "name": "nestedFixedArray",
      "outputs": [
        {
          "internalType": "uint128",
          "name": "",
          "type": "uint128"
        }
      ],
      "stateMutability": "view",
      "type": "function"
    },
    {
      "inputs": [
        {
          "internalType": "uint256",
          "name": "",
          "type": "uint256"
        }
      ],
      "name": "normalArray",
      "outputs": [
        {
          "internalType": "uint128",
          "name": "",
          "type": "uint128"
        }
      ],
      "stateMutability": "view",
      "type": "function"
    },
    {
      "inputs": [],
      "name": "owner",
      "outputs": [
        {
          "internalType": "address",
          "name": "",
          "type": "address"
        }
      ],
      "stateMutability": "view",
      "type": "function"
    },
    {
      "inputs": [],
      "name": "renounceOwnership",
      "outputs": [],
      "stateMutability": "nonpayable",
      "type": "function"
    },
    {
      "inputs": [],
      "name": "symbol",
      "outputs": [
        {
          "internalType": "string",
          "name": "",
          "type": "string"
        }
      ],
      "stateMutability": "view",
      "type": "function"
    },
    {
      "inputs": [],
      "name": "totalSupply",
      "outputs": [
        {
          "internalType": "uint256",
          "name": "",
          "type": "uint256"
        }
      ],
      "stateMutability": "view",
      "type": "function"
    },
    {
      "inputs": [
        {
          "internalType": "address",
          "name": "to",
          "type": "address"
        },
        {
          "internalType": "uint256",
          "name": "value",
          "type": "uint256"
        }
      ],
      "name": "transfer",
      "outputs": [
        {
          "internalType": "bool",
          "name": "",
          "type": "bool"
        }
      ],
      "stateMutability": "nonpayable",
      "type": "function"
    },
    {
      "inputs": [
        {
          "internalType": "address",
          "name": "from",
          "type": "address"
        },
        {
          "internalType": "address",
          "name": "to",
          "type": "address"
        },
        {
          "internalType": "uint256",
          "name": "value",
          "type": "uint256"
        }
      ],
      "name": "transferFrom",
      "outputs": [
        {
          "internalType": "bool",
          "name": "",
          "type": "bool"
        }
      ],
      "stateMutability": "nonpayable",
      "type": "function"
    },
    {
      "inputs": [
        {
          "internalType": "address",
          "name": "newOwner",
          "type": "address"
        }
      ],
      "name": "transferOwnership",
      "outputs": [],
      "stateMutability": "nonpayable",
      "type": "function"
    }
  ],
  "bytecode": "0x608060405234801561001057600080fd5b5060405161249338038061249383398181016040528101906100329190610272565b806040518060400160405280600981526020017f54657374546f6b656e00000000000000000000000000000000000000000000008152506040518060400160405280600281526020017f545400000000000000000000000000000000000000000000000000000000000081525081600390816100ae91906104ef565b5080600490816100be91906104ef565b505050600073ffffffffffffffffffffffffffffffffffffffff168173ffffffffffffffffffffffffffffffffffffffff16036101335760006040517f1e4fbdf700000000000000000000000000000000000000000000000000000000815260040161012a91906105d0565b60405180910390fd5b6101428161014960201b60201c565b50506105eb565b6000600560009054906101000a900473ffffffffffffffffffffffffffffffffffffffff16905081600560006101000a81548173ffffffffffffffffffffffffffffffffffffffff021916908373ffffffffffffffffffffffffffffffffffffffff1602179055508173ffffffffffffffffffffffffffffffffffffffff168173ffffffffffffffffffffffffffffffffffffffff167f8be0079c531659141344cd1fd0a4f28419497f9722a3daafe3b4186f6b6457e060405160405180910390a35050565b600080fd5b600073ffffffffffffffffffffffffffffffffffffffff82169050919050565b600061023f82610214565b9050919050565b61024f81610234565b811461025a57600080fd5b50565b60008151905061026c81610246565b92915050565b6000602082840312156102885761028761020f565b5b60006102968482850161025d565b91505092915050565b600081519050919050565b7f4e487b7100000000000000000000000000000000000000000000000000000000600052604160045260246000fd5b7f4e487b7100000000000000000000000000000000000000000000000000000000600052602260045260246000fd5b6000600282049050600182168061032057607f821691505b602082108103610333576103326102d9565b5b50919050565b60008190508160005260206000209050919050565b60006020601f8301049050919050565b600082821b905092915050565b60006008830261039b7fffffffffffffffffffffffffffffffffffffffffffffffffffffffffffffffff8261035e565b6103a5868361035e565b95508019841693508086168417925050509392505050565b6000819050919050565b6000819050919050565b60006103ec6103e76103e2846103bd565b6103c7565b6103bd565b9050919050565b6000819050919050565b610406836103d1565b61041a610412826103f3565b84845461036b565b825550505050565b600090565b61042f610422565b61043a8184846103fd565b505050565b5b8181101561045e57610453600082610427565b600181019050610440565b5050565b601f8211156104a35761047481610339565b61047d8461034e565b8101602085101561048c578190505b6104a06104988561034e565b83018261043f565b50505b505050565b600082821c905092915050565b60006104c6600019846008026104a8565b1980831691505092915050565b60006104df83836104b5565b9150826002028217905092915050565b6104f88261029f565b67ffffffffffffffff811115610511576105106102aa565b5b61051b8254610308565b610526828285610462565b600060209050601f8311600181146105595760008415610547578287015190505b61055185826104d3565b8655506105b9565b601f19841661056786610339565b60005b8281101561058f5784890151825560018201915060208501945060208101905061056a565b868310156105ac57848901516105a8601f8916826104b5565b8355505b6001600288020188555050505b505050505050565b6105ca81610234565b82525050565b60006020820190506105e560008301846105c1565b92915050565b611e99806105fa6000396000f3fe60806040526004361061011f5760003560e01c80638da5cb5b116100a0578063a9059cbb11610064578063a9059cbb146103ee578063ac25ebb41461042b578063dd62ed3e14610468578063f2fde38b146104a5578063f38a872d146104ce5761011f565b80638da5cb5b146102f5578063912d7d8f1461032057806395d89b41146103495780639a5009ac14610374578063a61e02b7146103b15761011f565b806340c10f19116100e757806340c10f191461021f57806354058a4b1461024857806370a0823114610285578063715018a6146102c25780637c88e3d9146102d95761011f565b806306fdde0314610124578063095ea7b31461014f57806318160ddd1461018c57806323b872dd146101b7578063313ce567146101f4575b600080fd5b34801561013057600080fd5b506101396104f7565b604051610146919061135b565b60405180910390f35b34801561015b57600080fd5b5061017660048036038101906101719190611425565b610589565b6040516101839190611480565b60405180910390f35b34801561019857600080fd5b506101a16105ac565b6040516101ae91906114aa565b60405180910390f35b3480156101c357600080fd5b506101de60048036038101906101d991906114c5565b6105b6565b6040516101eb9190611480565b60405180910390f35b34801561020057600080fd5b506102096105e5565b6040516102169190611534565b60405180910390f35b34801561022b57600080fd5b5061024660048036038101906102419190611425565b6105ee565b005b34801561025457600080fd5b5061026f600480360381019061026a919061154f565b6105fc565b60405161027c91906115ba565b60405180910390f35b34801561029157600080fd5b506102ac60048036038101906102a791906115d5565b61065d565b6040516102b991906114aa565b60405180910390f35b3480156102ce57600080fd5b506102d76106a5565b005b6102f360048036038101906102ee919061180d565b6106b9565b005b34801561030157600080fd5b5061030a610761565b6040516103179190611894565b60405180910390f35b34801561032c57600080fd5b5061034760048036038101906103429190611a6d565b61078b565b005b34801561035557600080fd5b5061035e61082d565b60405161036b919061135b565b60405180910390f35b34801561038057600080fd5b5061039b60048036038101906103969190611ab6565b6108bf565b6040516103a891906115ba565b60405180910390f35b3480156103bd57600080fd5b506103d860048036038101906103d39190611ab6565b6108fb565b6040516103e591906115ba565b60405180910390f35b3480156103fa57600080fd5b5061041560048036038101906104109190611425565b610941565b6040516104229190611480565b60405180910390f35b34801561043757600080fd5b50610452600480360381019061044d919061154f565b610964565b60405161045f91906115ba565b60405180910390f35b34801561047457600080fd5b5061048f600480360381019061048a9190611ae3565b6109bc565b60405161049c91906114aa565b60405180910390f35b3480156104b157600080fd5b506104cc60048036038101906104c791906115d5565b610a43565b005b3480156104da57600080fd5b506104f560048036038101906104f09190611b66565b610ac9565b005b60606003805461050690611c0d565b80601f016020809104026020016040519081016040528092919081815260200182805461053290611c0d565b801561057f5780601f106105545761010080835404028352916020019161057f565b820191906000526020600020905b81548152906001019060200180831161056257829003601f168201915b5050505050905090565b600080610594610b5d565b90506105a1818585610b65565b600191505092915050565b6000600254905090565b6000806105c1610b5d565b90506105ce858285610b77565b6105d9858585610c0c565b60019150509392505050565b60006012905090565b6105f88282610d00565b5050565b6007828154811061060c57600080fd5b90600052602060002001818154811061062457600080fd5b9060005260206000209060029182820401919006601002915091509054906101000a90046fffffffffffffffffffffffffffffffff1681565b60008060008373ffffffffffffffffffffffffffffffffffffffff1673ffffffffffffffffffffffffffffffffffffffff168152602001908152602001600020549050919050565b6106ad610d82565b6106b76000610e09565b565b6106c1610d82565b8051825114610705576040517f08c379a00000000000000000000000000000000000000000000000000000000081526004016106fc90611c8a565b60405180910390fd5b60005b825181101561075c5761074f83828151811061072757610726611caa565b5b602002602001015183838151811061074257610741611caa565b5b6020026020010151610d00565b8080600101915050610708565b505050565b6000600560009054906101000a900473ffffffffffffffffffffffffffffffffffffffff16905090565b7f040aed51b6ee8aa7952b387ac11fe9136479fc41a8676b6bde2f290cadfc50ff816000600281106107c0576107bf611caa565b5b60200201516000815181106107d8576107d7611caa565b5b6020026020010151826001600281106107f4576107f3611caa565b5b602002015160018151811061080c5761080b611caa565b5b6020026020010151604051610822929190611cd9565b60405180910390a150565b60606004805461083c90611c0d565b80601f016020809104026020016040519081016040528092919081815260200182805461086890611c0d565b80156108b55780601f1061088a576101008083540402835291602001916108b5565b820191906000526020600020905b81548152906001019060200180831161089857829003601f168201915b5050505050905090565b600881600281106108cf57600080fd5b60029182820401919006601002915054906101000a90046fffffffffffffffffffffffffffffffff1681565b6006818154811061090b57600080fd5b9060005260206000209060029182820401919006601002915054906101000a90046fffffffffffffffffffffffffffffffff1681565b60008061094c610b5d565b9050610959818585610c0c565b600191505092915050565b6009826002811061097457600080fd5b01818154811061098357600080fd5b9060005260206000209060029182820401919006601002915091509054906101000a90046fffffffffffffffffffffffffffffffff1681565b6000600160008473ffffffffffffffffffffffffffffffffffffffff1673ffffffffffffffffffffffffffffffffffffffff16815260200190815260200160002060008373ffffffffffffffffffffffffffffffffffffffff1673ffffffffffffffffffffffffffffffffffffffff16815260200190815260200160002054905092915050565b610a4b610d82565b600073ffffffffffffffffffffffffffffffffffffffff168173ffffffffffffffffffffffffffffffffffffffff1603610abd5760006040517f1e4fbdf7000000000000000000000000000000000000000000000000000000008152600401610ab49190611894565b60405180910390fd5b610ac681610e09565b50565b7f138af8b219baa2368e39d263dc7d1ce203c8f86bef107df983db9367d845ac21826000016020810190610afd9190611d02565b828060000190610b0d9190611d3e565b6000818110610b1f57610b1e611caa565b5b9050602002810190610b319190611da1565b6000016020810190610b439190611d02565b604051610b51929190611cd9565b60405180910390a15050565b600033905090565b610b728383836001610ecf565b505050565b6000610b8384846109bc565b90507fffffffffffffffffffffffffffffffffffffffffffffffffffffffffffffffff811015610c065781811015610bf6578281836040517ffb8f41b2000000000000000000000000000000000000000000000000000000008152600401610bed93929190611dc9565b60405180910390fd5b610c0584848484036000610ecf565b5b50505050565b600073ffffffffffffffffffffffffffffffffffffffff168373ffffffffffffffffffffffffffffffffffffffff1603610c7e5760006040517f96c6fd1e000000000000000000000000000000000000000000000000000000008152600401610c759190611894565b60405180910390fd5b600073ffffffffffffffffffffffffffffffffffffffff168273ffffffffffffffffffffffffffffffffffffffff1603610cf05760006040517fec442f05000000000000000000000000000000000000000000000000000000008152600401610ce79190611894565b60405180910390fd5b610cfb8383836110a6565b505050565b600073ffffffffffffffffffffffffffffffffffffffff168273ffffffffffffffffffffffffffffffffffffffff1603610d725760006040517fec442f05000000000000000000000000000000000000000000000000000000008152600401610d699190611894565b60405180910390fd5b610d7e600083836110a6565b5050565b610d8a610b5d565b73ffffffffffffffffffffffffffffffffffffffff16610da8610761565b73ffffffffffffffffffffffffffffffffffffffff1614610e0757610dcb610b5d565b6040517f118cdaa7000000000000000000000000000000000000000000000000000000008152600401610dfe9190611894565b60405180910390fd5b565b6000600560009054906101000a900473ffffffffffffffffffffffffffffffffffffffff16905081600560006101000a81548173ffffffffffffffffffffffffffffffffffffffff021916908373ffffffffffffffffffffffffffffffffffffffff1602179055508173ffffffffffffffffffffffffffffffffffffffff168173ffffffffffffffffffffffffffffffffffffffff167f8be0079c531659141344cd1fd0a4f28419497f9722a3daafe3b4186f6b6457e060405160405180910390a35050565b600073ffffffffffffffffffffffffffffffffffffffff168473ffffffffffffffffffffffffffffffffffffffff1603610f415760006040517fe602df05000000000000000000000000000000000000000000000000000000008152600401610f389190611894565b60405180910390fd5b600073ffffffffffffffffffffffffffffffffffffffff168373ffffffffffffffffffffffffffffffffffffffff1603610fb35760006040517f94280d62000000000000000000000000000000000000000000000000000000008152600401610faa9190611894565b60405180910390fd5b81600160008673ffffffffffffffffffffffffffffffffffffffff1673ffffffffffffffffffffffffffffffffffffffff16815260200190815260200160002060008573ffffffffffffffffffffffffffffffffffffffff1673ffffffffffffffffffffffffffffffffffffffff1681526020019081526020016000208190555080156110a0578273ffffffffffffffffffffffffffffffffffffffff168473ffffffffffffffffffffffffffffffffffffffff167f8c5be1e5ebec7d5bd14f71427d1e84f3dd0314c0f7b2291e5b200ac8c7c3b9258460405161109791906114aa565b60405180910390a35b50505050565b600073ffffffffffffffffffffffffffffffffffffffff168373ffffffffffffffffffffffffffffffffffffffff16036110f85780600260008282546110ec9190611e2f565b925050819055506111cb565b60008060008573ffffffffffffffffffffffffffffffffffffffff1673ffffffffffffffffffffffffffffffffffffffff16815260200190815260200160002054905081811015611184578381836040517fe450d38c00000000000000000000000000000000000000000000000000000000815260040161117b93929190611dc9565b60405180910390fd5b8181036000808673ffffffffffffffffffffffffffffffffffffffff1673ffffffffffffffffffffffffffffffffffffffff16815260200190815260200160002081905550505b600073ffffffffffffffffffffffffffffffffffffffff168273ffffffffffffffffffffffffffffffffffffffff16036112145780600260008282540392505081905550611261565b806000808473ffffffffffffffffffffffffffffffffffffffff1673ffffffffffffffffffffffffffffffffffffffff168152602001908152602001600020600082825401925050819055505b8173ffffffffffffffffffffffffffffffffffffffff168373ffffffffffffffffffffffffffffffffffffffff167fddf252ad1be2c89b69c2b068fc378daa952ba7f163c4a11628f55a4df523b3ef836040516112be91906114aa565b60405180910390a3505050565b600081519050919050565b600082825260208201905092915050565b60005b838110156113055780820151818401526020810190506112ea565b60008484015250505050565b6000601f19601f8301169050919050565b600061132d826112cb565b61133781856112d6565b93506113478185602086016112e7565b61135081611311565b840191505092915050565b600060208201905081810360008301526113758184611322565b905092915050565b6000604051905090565b600080fd5b600080fd5b600073ffffffffffffffffffffffffffffffffffffffff82169050919050565b60006113bc82611391565b9050919050565b6113cc816113b1565b81146113d757600080fd5b50565b6000813590506113e9816113c3565b92915050565b6000819050919050565b611402816113ef565b811461140d57600080fd5b50565b60008135905061141f816113f9565b92915050565b6000806040838503121561143c5761143b611387565b5b600061144a858286016113da565b925050602061145b85828601611410565b9150509250929050565b60008115159050919050565b61147a81611465565b82525050565b60006020820190506114956000830184611471565b92915050565b6114a4816113ef565b82525050565b60006020820190506114bf600083018461149b565b92915050565b6000806000606084860312156114de576114dd611387565b5b60006114ec868287016113da565b93505060206114fd868287016113da565b925050604061150e86828701611410565b9150509250925092565b600060ff82169050919050565b61152e81611518565b82525050565b60006020820190506115496000830184611525565b92915050565b6000806040838503121561156657611565611387565b5b600061157485828601611410565b925050602061158585828601611410565b9150509250929050565b60006fffffffffffffffffffffffffffffffff82169050919050565b6115b48161158f565b82525050565b60006020820190506115cf60008301846115ab565b92915050565b6000602082840312156115eb576115ea611387565b5b60006115f9848285016113da565b91505092915050565b600080fd5b7f4e487b7100000000000000000000000000000000000000000000000000000000600052604160045260246000fd5b61163f82611311565b810181811067ffffffffffffffff8211171561165e5761165d611607565b5b80604052505050565b600061167161137d565b905061167d8282611636565b919050565b600067ffffffffffffffff82111561169d5761169c611607565b5b602082029050602081019050919050565b600080fd5b60006116c66116c184611682565b611667565b905080838252602082019050602084028301858111156116e9576116e86116ae565b5b835b8181101561171257806116fe88826113da565b8452602084019350506020810190506116eb565b5050509392505050565b600082601f83011261173157611730611602565b5b81356117418482602086016116b3565b91505092915050565b600067ffffffffffffffff82111561176557611764611607565b5b602082029050602081019050919050565b60006117896117848461174a565b611667565b905080838252602082019050602084028301858111156117ac576117ab6116ae565b5b835b818110156117d557806117c18882611410565b8452602084019350506020810190506117ae565b5050509392505050565b600082601f8301126117f4576117f3611602565b5b8135611804848260208601611776565b91505092915050565b6000806040838503121561182457611823611387565b5b600083013567ffffffffffffffff8111156118425761184161138c565b5b61184e8582860161171c565b925050602083013567ffffffffffffffff81111561186f5761186e61138c565b5b61187b858286016117df565b9150509250929050565b61188e816113b1565b82525050565b60006020820190506118a96000830184611885565b92915050565b600067ffffffffffffffff8211156118ca576118c9611607565b5b602082029050919050565b600067ffffffffffffffff8211156118f0576118ef611607565b5b602082029050602081019050919050565b61190a8161158f565b811461191557600080fd5b50565b60008135905061192781611901565b92915050565b600061194061193b846118d5565b611667565b90508083825260208201905060208402830185811115611963576119626116ae565b5b835b8181101561198c57806119788882611918565b845260208401935050602081019050611965565b5050509392505050565b600082601f8301126119ab576119aa611602565b5b81356119bb84826020860161192d565b91505092915050565b60006119d76119d2846118af565b611667565b905080602084028301858111156119f1576119f06116ae565b5b835b81811015611a3857803567ffffffffffffffff811115611a1657611a15611602565b5b808601611a238982611996565b855260208501945050506020810190506119f3565b5050509392505050565b600082601f830112611a5757611a56611602565b5b6002611a648482856119c4565b91505092915050565b600060208284031215611a8357611a82611387565b5b600082013567ffffffffffffffff811115611aa157611aa061138c565b5b611aad84828501611a42565b91505092915050565b600060208284031215611acc57611acb611387565b5b6000611ada84828501611410565b91505092915050565b60008060408385031215611afa57611af9611387565b5b6000611b08858286016113da565b9250506020611b19858286016113da565b9150509250929050565b600080fd5b600060608284031215611b3e57611b3d611b23565b5b81905092915050565b600060208284031215611b5d57611b5c611b23565b5b81905092915050565b60008060408385031215611b7d57611b7c611387565b5b600083013567ffffffffffffffff811115611b9b57611b9a61138c565b5b611ba785828601611b28565b925050602083013567ffffffffffffffff811115611bc857611bc761138c565b5b611bd485828601611b47565b9150509250929050565b7f4e487b7100000000000000000000000000000000000000000000000000000000600052602260045260246000fd5b60006002820490506001821680611c2557607f821691505b602082108103611c3857611c37611bde565b5b50919050565b7f417272617973206d7573742068617665207468652073616d65206c656e677468600082015250565b6000611c746020836112d6565b9150611c7f82611c3e565b602082019050919050565b60006020820190508181036000830152611ca381611c67565b9050919050565b7f4e487b7100000000000000000000000000000000000000000000000000000000600052603260045260246000fd5b6000604082019050611cee60008301856115ab565b611cfb60208301846115ab565b9392505050565b600060208284031215611d1857611d17611387565b5b6000611d2684828501611918565b91505092915050565b600080fd5b600080fd5b600080fd5b60008083356001602003843603038112611d5b57611d5a611d2f565b5b80840192508235915067ffffffffffffffff821115611d7d57611d7c611d34565b5b602083019250602082023603831315611d9957611d98611d39565b5b509250929050565b600082356001606003833603038112611dbd57611dbc611d2f565b5b80830191505092915050565b6000606082019050611dde6000830186611885565b611deb602083018561149b565b611df8604083018461149b565b949350505050565b7f4e487b7100000000000000000000000000000000000000000000000000000000600052601160045260246000fd5b6000611e3a826113ef565b9150611e45836113ef565b9250828201905080821115611e5d57611e5c611e00565b5b9291505056fea2646970667358221220699ee97a349169030d8c4a9e0b7d2cde668777d3b389a24de3657b3b2817d14364736f6c634300081c0033",
  "linkReferences": {},
  "deployedLinkReferences": {}
}